:1000000000180020C10000008918000055180000E9
:10001000551800005518000055180000551800002C
:1000200055180000551800005518000089180000E8
:1000300089180000551800008918000045180000B4
:10004000891800008918000089180000891800002C
:10005000891800008918000089180000891800001C
:10006000891800008918000089180000891800000C
:10007000F51600009D310000812B0000891800005A
:1000800089180000610C0000891800008918000020
:1000900089180000891800008918000089180000DC
:1000A000AD1A0000891800008918000089180000A6
:1000B00089180000891800008918000089180000BC
:1000C00038B501F0E5FB454A454B1A60454A464BB9
:1000D0001A60464A464B1A60464B0822197811426C
:1000E00002D019780A431A70434B2A221A7000234F
:1000F000424A43499A188A4204D24249C9580433B1
:100100001160F5E7404B41491A1F181D00238A4230
:1001100002D21360031CF6E73D493E4A5958101CB1
:1001200099500433C02BF7D100239A083A49920022
:10013000521803211940C9001568FF248C40A543BB
:100140002C1C80258D40291C214301331160202B5C
:10015000EBD1324B8A221860314B1A70314B24227A
:100160005A70A0221A709A799107FCD59A79D5060F
:10017000FCD498790C212B4A01400829F9D103219C
:100180001171402151719A799106FCD59A795506E1
:10019000FCD52549254A1160224A20211170997900
:1001A0000C220A400C2AFAD1214A224B1A60224A18
:1001B000224B1A60224B00221A60224B07221A603F
:1001C000214A224B1A6062B600F076FF03F014F960
:1001D00001F064FB02F020F9FEE7C046300004F0B5
:1001E00034800440823F0000388004400100000F4A
:1001F0003C80044002D0074000E0074060FDFF1F44
:1002000074FEFF1F805D000078FEFF1FD8020020F3
:100210000000000000F9FF1F00E400E008ED00E02E
:100220000050064000400640000001104480044099
:10023000C0000505048004407FBB000014E000E01E
:1002400018E000E010E000E00000202020ED00E0D9
:10025000FFFFFFFFFFFFFFFFFFFFFFFFFFFFFFFFAE
:10026000FFFFFFFFFFFFFFFFFFFFFFFFFFFFFFFF9E
:10027000FFFFFFFFFFFFFFFFFFFFFFFFFFFFFFFF8E
:10028000FFFFFFFFFFFFFFFFFFFFFFFFFFFFFFFF7E
:10029000FFFFFFFFFFFFFFFFFFFFFFFFFFFFFFFF6E
:1002A000FFFFFFFFFFFFFFFFFFFFFFFFFFFFFFFF5E
:1002B000FFFFFFFFFFFFFFFFFFFFFFFFFFFFFFFF4E
:1002C000FFFFFFFFFFFFFFFFFFFFFFFFFFFFFFFF3E
:1002D000FFFFFFFFFFFFFFFFFFFFFFFFFFFFFFFF2E
:1002E000FFFFFFFFFFFFFFFFFFFFFFFFFFFFFFFF1E
:1002F000FFFFFFFFFFFFFFFFFFFFFFFFFFFFFFFF0E
:10030000FFFFFFFFFFFFFFFFFFFFFFFFFFFFFFFFFD
:10031000FFFFFFFFFFFFFFFFFFFFFFFFFFFFFFFFED
:10032000FFFFFFFFFFFFFFFFFFFFFFFFFFFFFFFFDD
:10033000FFFFFFFFFFFFFFFFFFFFFFFFFFFFFFFFCD
:10034000FFFFFFFFFFFFFFFFFFFFFFFFFFFFFFFFBD
:10035000FFFFFFFFFFFFFFFFFFFFFFFFFFFFFFFFAD
:10036000FFFFFFFFFFFFFFFFFFFFFFFFFFFFFFFF9D
:10037000FFFFFFFFFFFFFFFFFFFFFFFFFFFFFFFF8D
:10038000FFFFFFFFFFFFFFFFFFFFFFFFFFFFFFFF7D
:10039000FFFFFFFFFFFFFFFFFFFFFFFFFFFFFFFF6D
:1003A000FFFFFFFFFFFFFFFFFFFFFFFFFFFFFFFF5D
:1003B000FFFFFFFFFFFFFFFFFFFFFFFFFFFFFFFF4D
:1003C000FFFFFFFFFFFFFFFFFFFFFFFFFFFFFFFF3D
:1003D000FFFFFFFFFFFFFFFFFFFFFFFFFFFFFFFF2D
:1003E000FFFFFFFFFFFFFFFFFFFFFFFFFFFFFFFF1D
:1003F000FFFFFFFFFFFFFFFFFFFFFFFFFFFFFFFF0D
:10040000FFFFFFFFFFFFFFFFFFFFFFFFDEF9FFFF23
:1004100008B5064B064803331B1A062B00D808BD47
:10042000044B002BFBD09847F9E7C04674FEFF1F32
:1004300074FEFF1F0000000008B50748074B1B1A99
:100440009B10DA0FD318591000D108BD044A002AB6
:10045000FBD09047F9E7C04674FEFF1F74FEFF1FF4
:100460000000000010B5074C2378002B09D1FFF7DE
:10047000CFFF054B002B02D0044800E000BF012352
:10048000237010BD74FEFF1F00000000805D00009F
:1004900008B5094B002B03D00848094900E000BF0C
:1004A00008480368002B03D0074B002B00D0984767
:1004B000FFF7C2FF08BDC04600000000805D0000DD
:1004C00078FEFF1F74FEFF1F000000000902484075
:1004D000082301B2420090B2002902DA03484240E8
:1004E00090B2013B002BF4D17047C04621100000B0
:1004F000F0B587B005930CAB049102CB041C1B88AC
:1005000002920393BE4B012518781F1C072800D9BF
:10051000AFE103F06BFF04294A6D9ED0B4C4B94E1D
:100520003378002B02D0B84803F0B8F80325A82C84
:1005300000D09EE1B54B01251C70B54B00201D700D
:10054000B44B211C1870B44B1870FFF7BFFFB34BAE
:100550003D701880B24B1C703378002B77D0211C73
:10056000B04803F01FF884E1012C21D8A74B5C7040
:10057000A74B002C00D11C701B78002B06D0A74D78
:10058000211C2888FFF7A2FF288003E0A44B1A78DB
:10059000A2181A7002233B709A4B1B78002B56D07E
:1005A000211CA14802F0FEFF51E0A31E1E2B01D921
:1005B000002372E0954B9C70954B1B78002B06D066
:1005C000964D211C2888FFF781FF288003E0944B7B
:1005D0001A78A2181A708F4B1A7801321A700323F6
:1005E0003B70884B1B78002B31D09048211C22E0B7
:1005F0008849864B0D785A19D470854A1278002A9A
:1006000006D0864E211C3088FFF760FF308003E063
:10061000834B1A78A2181A707E4A01357B4BEDB2D3
:1006200015709A78774B5200954208DC1B78002BA6
:100630000DD07F48A91E221C02F0B4FF07E01B78F2
:1006400004223A70002B02D07A4803F027F80125E3
:100650000FE16E4B43331C706A4B1B78002B06D0A6
:100660006E4B75481A88211C120A02F09BFF684BDA
:100670001B78002B01D005230FE006230DE0634B10
:1006800044331C705F4B1B78002B05D0634B6B48C9
:100690001A78211C02F086FF07233B70D7E75B4BDB
:1006A00045331C70574B1B78002BE4D0211C644849
:1006B00002F078FFDFE7564B544D1A78514B002A71
:1006C0001BD02A1C1B7844321470002B05D0534BCE
:1006D0005C481A78211C02F065FF504B1A884B4B7E
:1006E000191C4331087844331978000243189A42A0
:1006F00014D1494B01221A7010E02A1C1B78463293
:100700001470474E002B04D032784F48211C02F061
:1007100049FF2B1C463332781B78E8E73E4B394CB7
:100720001B78002B00D19BE02378002B02D0474898
:1007300002F0B4FF364B1B78002B04D02378002B3B
:1007400007D0434803E02378002B02D0414802F051
:10075000A5FF2378002B08D02E4B3F48197801398C
:10076000CA0F5218521002F01DFF0299049A0B781A
:1007700001330B7064231370244B03999A788A42D7
:1007800000D99970AB78059A0C991380AB79EA7906
:100790001B021343DB080B802B7A6A7A1B0213437C
:1007A000DB084B802B796A791B021343DB088B80B3
:1007B000AB7AEA7A1B021343DB08CB800C350424A6
:1007C000124B9B789C4219D20E4B1B78002B0AD0FF
:1007D0002A786B7810021843C01000900190611CB9
:1007E0001E4802F0DFFE2A78697812020A430C994B
:1007F0006300D208CA5201340235E1E7002536E031
:10080000DCFEFF1F93FEFF1F5C57000095FEFF1FDD
:1008100060FDFF1FDDFEFF1F94FEFF1F90FEFF1F08
:1008200092FEFF1F795700009D570000C05700003F
:10083000E65700000B5800003458000060580000D4
:100840008C580000B7580000E25800001059000012
:100850001B5900003259000049590000645900003A
:1008600023780425002B02D0034802F017FF002351
:100870003B70281C07B0F0BD81590000074B036096
:10088000012307499A0001338150112BF9D1031C30
:100890009C335C221A7058225A70704700A60E00D2
:1008A00040190100F0B5434B85B0051C0291186852
:1008B00041491C1C414B884271D11E687F20304049
:1008C00048286CD102980638112866D803F08EFDAE
:1008D000096565180C6565656565656565650F6520
:1008E0001215374C04260DE0364C03260AE0364C30
:1008F000052607E0354C002604E0354C012601E0D2
:10090000344C02262F1C8C371A2A15D80C2353433B
:100910003149101CC95839602F49CB181B7A291C42
:1009200090310B700391012100F044FB03993B6867
:100930000A78D2B21A7101E000233B602A1C00231E
:100940009832137053709370043A14602360C82275
:100950002B1C62609C331B78B20023601F4B01206C
:10096000D5501F4B021CB240161C1A780299164330
:100970001E700C234B43184AD3185B68194A1A603F
:10098000194B1A4A19680A40802189010A431A60E2
:100990008022174B92021A6009E0002007E0154EF2
:1009A0000020186030602160482119608AE705B096
:1009B000F0BDC04608800340FFFF000000800340F8
:1009C0002C80034024800340348003400C8003408B
:1009D000148003401C8003409859000004FFFF1F4F
:1009E000E2FEFF1F4404000010E400E0FF00FFFFF0
:1009F00000E100E00480034008B5FF22FFF752FF4A
:100A000008BDFFFFFFFFFFFFF0B50B1C85B0013BEA
:100A1000041C0391161C00250F2B4CD8101C2A49CE
:100A200003F098FD071EAF4245D1301C274903F063
:100A3000A5FD3D1C00283ED1301C04F03DFE214B9D
:100A40001F4A04F041F803F0CBFD221C9A320192B8
:100A500013780399994200D2191C031C0122039DAB
:100A6000AA4204D29600A65901329B19F7E7AE00BC
:100A7000A719BC460022039D0132AD188D4204D84F
:100A8000950067467F59DB19F5E7114A934202D872
:100A9000104AD31A08E0231C8C331B68002B02D0A9
:100AA00096235B0100E00C4B72B62360A051019EBF
:100AB000317062B60125281C05B0F0BDC046C046A5
:100AC00000000000000048400000964300401C4524
:100AD0007FFC0A0000A60E0080A90300C046C046A5
:100AE000F0B5021C9832117800290FD1031C943301
:100AF0001B6896265D687601AC1919605C609D30B4
:100B0000007880210143196001235AE0012934D182
:100B1000992109180B78061C8C469B36002B13D0A4
:100B2000191C103189004118274C49683678013367
:100B3000091900249E42644164422340041C8C3401
:100B40002468002C0DD115E0011C9A310F781C1C73
:100B50003770011CBC42E3D80D6801344D64043188
:100B6000F8E7061C90363678F6B2012B01D12671D3
:100B700000E026726646337002E0031C8833196871
:100B8000031C124C94331B68A1420BD85C689C3048
:100B90006118596000211960047880202043186092
:100BA00011700FE05D680A4EAC195C60041C9D3446
:100BB000257880242C431C60064B8830C9180160BE
:100BC00002231370F0BDC04640EDFFFF60EA000055
:100BD00090E20000701DFFFF30B5011C8A310C78D7
:100BE00003688021214319605A681A4BE0211B8851
:100BF00009028A4204D9184909784C1EA1415B1A9E
:100C00001B041343021C0832D46FD367134A191B09
:100C1000031C8833914214D91978FF290ED0021C85
:100C200000248C4204DA5568013455640432F8E734
:100C3000021C893211708B300122027000221A705E
:100C400007E01A780F2A04D8541C920080181C70F0
:100C5000416030BDE0FEFF1FDEFEFF1F3F9002003F
:100C600038B54C4B4C4D1A68110607D5C8221A608E
:100C70004A4B1A8801321A8001232B70484B1C788A
:100C8000E20703D5474B1B68190646D4A20703D5D4
:100C9000454B1B68190645D4620703D5434B1B68B7
:100CA000190644D4220703D5414B1B68190643D4C7
:100CB000E20603D53F4B1B68190642D4A20603D5B2
:100CC0003D4B1B68190641D43C4B1C78E20703D509
:100CD000344B1B6819063ED4A20703D5324B1B6860
:100CE00019063DD4620703D5304B1B6819063CD466
:100CF000220703D52E4B1B6819063BD4E20603D509
:100D00002C4B1B6819063AD4A20603D52A4B1B6844
:100D1000190639D400232B7038BD294B1868FFF70A
:100D20005BFFB3E7264B5868FFF756FFB4E7244B49
:100D30009868FFF751FFB5E7214BD868FFF74CFFE4
:100D4000B6E71F4B1869FFF747FFB7E71C4B586919
:100D5000FFF742FFB8E71B4B1868FFF7C1FEBBE780
:100D6000184B5868FFF7BCFEBCE7164B9868FFF7B6
:100D7000B7FEBDE7134BD868FFF7B2FEBEE7114BD5
:100D80001869FFF7ADFEBFE70E4B5869FFF7A8FEE5
:100D9000C0E7C04600800340DEFEFF1FE0FEFF1FED
:100DA000E3FEFF1F0C800340148003401C800340BF
:100DB000248003402C80034034800340E2FEFF1F68
:100DC000E4FEFF1F04FFFF1F38B5041C081C0D1CA8
:100DD00002F080FC2368021C291C5B68201C9847D9
:100DE000051C201C01F0DCFA281838BD10B50121C3
:100DF000041C0D2000F0BEF8201C00F043F90D206B
:100E0000002100F0B7F810BD10B51A2000F0BAF9B3
:100E10000D20012100F0CEF80E481421FFF7ECFD63
:100E200000235900C8200C4A013380009BB288522D
:100E30000F2BF6D9094AFA2080001380FFF7D6FF5E
:100E4000074C0849201CFFF7BFFF201C0649FFF78D
:100E5000BBFF10BD50FFFF1F26FFFF1F24FFFF1F1A
:100E600080010020635900008E590000F0B52E4F1C
:100E700085B03B682D4E0293029A3368D21AFA234A
:100E80009B009A4211D92A4C0023238021880F29E4
:100E900008D80131C9B22748274AFFF7B5FD238892
:100EA0000133F2E7142000F0EDF801F085F9002895
:100EB00038D001F039F9214C214D10230193C0B2F3
:100EC00000952049204A231CFFF712FB002829D156
:100ED0002388174C0F2B05D81C495A000133A952FF
:100EE0009BB2F7E70D200121238000F043F83B6817
:100EF0000393039B33600023238023880F2B0DD89B
:100F00005E1C5B00E85A03F049FCF6B2021C311C7F
:100F10000848FFF779FD23880133EDE70D20002114
:100F200000F028F805B0F0BDF4FFFF1F48FFFF1FD9
:100F300024FFFF1F50FFFF1F00004844F2FFFF1F68
:100F400026FFFF1FF0FFFF1F4CFFFF1FDC05000007
:100F500007B50548FFF792FC044B1B680193019A03
:100F6000034B1A6007BDC04650FFFF1FF4FFFF1F71
:100F700048FFFF1F10B51A2818D80C2358430C4AF5
:100F8000835810181C7D027A224205D0002901D016
:100F90001A710BE01A7209E043681A68002902D03E
:100FA00003210A4301E002218A431A6010BDC046B2
:100FB00098590000F0B51A283DD80C273D1C454330
:100FC0001D4A54196368161C012901D0042912D145
:100FD000784332583018147D007A20431075A222CD
:100FE00052001A602022042901D1196814E01968FE
:100FF00091430A1C1EE0AA58247A107DA043107564
:10100000002902D08A1E012A12D8802252001A60BA
:10101000022903D11A6803210A430BE003290AD1EC
:101020001A6802210A431A601A6801218A4301E002
:101030000422FF321A60F0BD9859000072B60C4BC2
:101040000C491A680C4B1B68096862B6480104D544
:1010500032219142894149425B18FA208000434382
:101060000648821A06484243920D98187047C046B7
:1010700018E000E004ED00E0F4FFFF1F7FBB00007C
:101080005555010038B5041CFFF7D8FF051C002C8E
:101090000FD0FFF7D3FF074B401B984206D9013C06
:1010A000002C06D0FA239B00ED18F2E701F090F92E
:1010B000EFE738BDE70300001D4B8022D20510B5D5
:1010C0001A60802212061A601A4B002018601A4912
:1010D0001A4B1B4A1960282313601A4A1A4C1360D2
:1010E0001A4A13601A4A13601A4A13601A4A1360A4
:1010F00009222260194C2060194C2160194C236090
:10110000194C2360194C2260194C20601948016069
:1011100019490B6019490B60194B1A6000F04AFB22
:10112000C8204000FFF7AEFF00F0A8FF10BDC0468A
:1011300000E100E004800340FFBF0000088003409E
:101140000C80034014800340008003401C80034057
:10115000248003402C8003403480034004900340EB
:10116000089003400C90034014900340009003400B
:1011700004A0034008A003400CA0034014A00340B7
:1011800000A00340264B80221968D2000A431A604F
:10119000244A00231370244A1370244A1370244AEB
:1011A0001370244A1370244B1B78032B09D0152B82
:1011B00004D0002B08D1214A214B04E01F4A214BC7
:1011C00001E0214A214B1A60214B1B78042B0BD0E4
:1011D000052B05D0012B0BD1D12292001D4B06E02F
:1011E000D12292001C4B02E091221C4B92001A600B
:1011F0001B4BC204D20E1A70C0B2002258709A70F3
:101200002C22DA70174BFF22196891430A1C4021E7
:101210000A431A60144B802252011A607047C0467C
:101220003480044081000020FDFFFF1F8800002063
:1012300082000020FCFFFF1F3E000020130300007F
:1012400040A0044018C00440130200000490044071
:1012500061FDFF1F44A004401CC0044008900440EE
:1012600000A006400CE400E000E100E010B5174BE0
:10127000132299789143032202400A43410701D582
:1012800010210A439A700F2210490240042A03D108
:101290008A79402422438A715A7910218A4308426C
:1012A00000D00A435A71997910229143840600D5DF
:1012B0001143064A9971C10506D55378117820204B
:1012C000DBB201431170537010BDC04600A0064050
:1012D00008B5124B1B685A051ED5114B1B78DBB2A3
:1012E000002B02D001F074F8F7E70E4A8021490183
:1012F00011600D4A0D49D3700422FF320A600C4977
:101300000A600C4A13700C4A13700C4B1B68002BBC
:1013100002D00B4A12781A7108BDC04634800440CE
:10132000FCFFFF1F80E100E000A0064040A0044059
:1013300044A0044081000020FDFFFF1FF8FFFF1FB5
:101340003F00002038B5041C0B4B1D78EDB2002D7A
:10135000FAD1201C0121FFF72DFE291C201CFFF7CC
:1013600009FE0C225443054B054AE1581C19116033
:10137000044B227A1A7038BDFCFFFF1F98590000F9
:10138000840000208000002030B5002901D0802397
:101390001843224A1378141C98423ED0204A1268FF
:1013A000550539D57F221340042B0FD004D8012BCB
:1013B0000FD100221B4B0BE0052B04D0182B08D1BA
:1013C0000022194B04E00022184B01E0184B0022C8
:1013D0001A604423002900D060237F220240042A9F
:1013E00015D006D8012A17D1C022920013430D4A06
:1013F00011E0052A06D0182A0ED18022D20013430C
:10140000094A08E0C02292001343084A03E0802200
:1014100092001343064A1360207030BD61FDFF1F28
:101420003480044044A0044050D004401CC0044018
:101430000890044010B51A4A137898422ED01949E2
:1014400009684C0529D5032B0FD004D8002B0FD1E8
:1014500015490B600CE0152B04D0192B08D1002185
:10146000124B04E00021124B01E0124B00211960E5
:1014700003280FD004D800280FD10F490A4B0BE0E6
:10148000152804D0192808D10C49084B04E00A4952
:10149000074B01E00A49074B1960107010BDC046A8
:1014A0003E0000203480044040A0044054D004405A
:1014B00018C004400490044013030000130400000B
:1014C0001302000038B50E4B1A680023510514D5DD
:1014D0000C4C1A2810D80C2343430B4A0B4D995837
:1014E000D3181B7A216001212B70FFF763FD23685D
:1014F0002A781A72012300E02360181C38BDC04608
:1015000034800440F8FFFF1F985900003F0000207E
:1015100000207047F8B5214B071C1B685A053BD5C6
:101520001F4B1B68002B02D01E4A12781A711E4EE8
:10153000002334783F220134A2425B415B421C40CD
:101540001A4D2B78A3421CD100F0C2F9402813DCBD
:10155000174A13795BB2002BF2DA2B7800210133A2
:101560003F209842494149420B401249C95CDBB2D5
:10157000C9B2D1712B70E3E7FF28E1DD00F028FF4D
:10158000DEE70C4BFFB21F550B4B01221A70084BC4
:10159000E4B2AC223470DA70F8BDC0463480044046
:1015A00084000020800000208800002082000020AD
:1015B00000A00640FEFFFF1FFCFFFF1F38B5041C04
:1015C0004518AC4204D02078FFF7A4FF0134F8E7B7
:1015D00038BDFFFF08B5044B1B78002B02D000F08C
:1015E000F7FEF8E708BDC046FCFFFF1F064B074AA1
:1015F0001B781078DBB2C0B2834201D33F3000E0E9
:101600000138C01A7047C0468800002082000020C0
:10161000054B1878054BC0B21B78DBB2984200D25C
:101620004030C01A7047C04681000020FDFFFF1FF8
:1016300010B5124B12491A780B78D2B2DBB29A422B
:1016400019D001333F2400209C42404140420340D6
:101650000C48DCB2C05C0C700B49C0B209680029B0
:101660000BD09A4200D24032D31A1A2B05DC074B1A
:101670001B780B7201E00120404210BD8100002068
:10168000FDFFFF1F40000020F8FFFF1F3F0000206C
:101690000A4B1A780A4B1B78DBB29A420AD0013304
:1016A00000223F219942524152421340054AD05CE8
:1016B000C0B201E0012040427047C04681000020D6
:1016C000FDFFFF1F40000020064B1A78064BD2B2E8
:1016D0001A70064B1B68002B02D0054A12781A724A
:1016E0007047C046FDFFFF1F81000020F8FFFF1F6D
:1016F0003F00002030B5254A1379990612D52449B8
:10170000D4790B78002001333F259D42404140426F
:1017100003402048E4B20078834203D01E48C454FA
:10172000DBB20B70D178194CC9B24BB2002B1ADA6C
:1017300023795BB2002B16DA184B19481D78037811
:10174000DBB29D4202D16C23E3700CE00133002434
:101750003F259D42644164422340124CE45CDBB26D
:10176000E4B2D4710370402319420ED011791942AA
:101770000BD00D4B002119700C4B1B688B4202D013
:101780000B49097819722C23D37030BD00A0064094
:1017900081000020FDFFFF1F400000208800002086
:1017A00082000020FEFFFF1FFCFFFF1F84000020BF
:1017B000800000201B4B1C4A19781C4B082901D1C2
:1017C000002102E00A2903D138211160132206E02A
:1017D0000C2901D1342100E03C21116012221A6051
:1017E000134B1A78134B002A01D0002200E001228B
:1017F0001A60114B1A78114B012A01D880220CE093
:10180000042A01D8842208E0082A01D8852204E0AD
:10181000102A01D8862200E087221A60084B012294
:101820001A70704762FDFF1F08B003400CB0034000
:101830008A00002020B0034063FDFF1F24B0034056
:1018400089000020024B1A6801321A607047C046B6
:10185000F4FFFF1F10B50B4C23685A0301D500F0AD
:1018600025F923685A0501D5FFF744FF23681A05B7
:1018700001D501F093FC2368DA04ECD501F080F97E
:10188000E9E7C0463480044008B5FFF7E3FFFFFFF7
:10189000014B00221A607047008104407047FFFF2F
:1018A000024A136818181060181C704764FDFF1F67
:1018B0000020704701204042704780239B01002098
:1018C0004B60704701207047012040427047FFFF86
:1018D000EFF31380002821D1EFF31082002A1FD1EB
:1018E000EFF30583002B0FD0101C0F2B0ED91A1C01
:1018F000103A92080B49032092000340521883408B
:101900001068D840C0B201E080204000EFF311829F
:10191000002A05D0824203D2101C01E0012040427F
:101920007047C04600E400E0F0B50B4F02223B7860
:101930000A4E1A43D2000A4DB418606028788824F1
:10194000002800D0C82409040C43B45001225040A0
:10195000534028703B70F0BDF400002000F8FF1FDA
:101960006C010020431E10B5032B0FD872B6084A35
:1019700099008858002807D044685B008C50054ABD
:1019800001889C5A611A995262B600E0002010BD8D
:10199000E4000020C0020020431E0020032B09D8D1
:1019A00072B6054A9B009B58002B02D001305B6841
:1019B000FAE762B67047C0463801002038B572B603
:1019C0000123164A9A18013A127811071CD5144AB5
:1019D0005C01A5589900002D05D1131908305860F5
:1019E000104BA3500AE001242143C9008C58002C5D
:1019F0000AD15318083058600B4B8B500B4B1A7898
:101A0000013A1A7062B608E00133052BD9D162B6EB
:101A1000064B00221A7001F06FF938BDA05B000080
:101A200000F8FF1F88004000C8004000620100204D
:101A3000421E10B5032A30D8022380001843174BEA
:101A4000C0001B1872B6164CA05C032809D802F01F
:101A5000CDFC140216050833022011E008330420DF
:101A60000EE01048920014580F4B002C01D1115079
:101A700001E09858416099500EE0032000E00520F5
:101A8000A0540A1C08325A608822180700D5C822C0
:101A9000098809040A431A6062B610BD00F8FF1FE6
:101AA000A00000203801002048010020F7B5B5490A
:101AB0000C780E1CE4B262071DD5B34B1B78002BCB
:101AC00016D0B24A1378DBB2002B05D0013BDBB253
:101AD0001370002B00D100BEAD4A1378DBB2002B8F
:101AE00006D0013BDBB21370002B01D100F034FCB7
:101AF000A44D04232B700825221C2A4000D154E257
:101B0000A44BA54C1B78DBB21E099A08002E00D00E
:101B1000DDE1D50065192F686A68B806000F013845
:101B20000C2800D9D0E102F06BFC93019301CF01A6
:101B3000CF01CF01CF01CF01CF01AC01CF01CF0148
:101B4000CF010D0095491368954F5268954829605B
:101B5000954D964900263B607A609BB201222E602B
:101B60002661A66102708B4218D8D021C9008B4231
:101B700000D3E5E0812191408B4200D1C2E006D83C
:101B8000802B00D1A9E0822B00D1ABE0F5E0884AA0
:101B9000934200D1C5E0A022D20017E085498B42D4
:101BA00000D152E10DD8882109018B4200D18EE08D
:101BB00090221201934200D0DFE0BA78724B1A7083
:101BC00009E07D4A934200D1CFE07C4A002693424F
:101BD00000D115E1D1E0A319196A090603D5586AA5
:101BE000083801F089F80836802EF4D100252E1C23
:101BF000734AA858002805D04368019301F07CF887
:101C00000198F7E76E496F4B6F4A4851E850A85862
:101C1000002805D04368019301F06EF80198F7E7BA
:101C20006A4B6B4AE8507300D0526749694B485180
:101C3000F05C0238032807D802F0D8FB0204020443
:101C4000002200E001229A5501360435042ECFD13E
:101C5000614A002313700125161C604BEA18604B83
:101C60009200EB18013B1B781370190720D501F087
:101C700025F86B01002805D0E21808305060594A59
:101C8000E25003E0E05033780133337001F016F88E
:101C90000122AB001343DB00002805D0E218083016
:101CA00050603E4AE25003E0E05033780133337035
:101CB000AB0002221A43D2000021A1500322134399
:101CC00093400135E150052DC7D10E1C98E02E4BF5
:101CD000454C1B78161C237093E0434C26706670AD
:101CE00002268EE0BB88042B47D83F4C3F4D9B001B
:101CF000267066705B191B780226334200D180E0A3
:101D000022707EE0BA887F231340042B35DC7E8866
:101D1000002E32D135499B005B181A7802218A4384
:101D200029E0BA887F231340042B26DC7E88002E0E
:101D300023D12E4A9B009B181A7802210A431AE0ED
:101D40007A88B9882A4B5C68002C16D01888904293
:101D500009D15888884206D1120A032A01D126786F
:101D60004FE01E894DE00C33EDE7224B1A68224B01
:101D70001A60BA78214B1A7042E01C4B0F221A707D
:101D800063E0C046802007406B010020F500002082
:101D90006D0100209020074000F8FF1FC8004000A0
:101DA000580100206C0100208C00002081060000FA
:101DB0000203000021200000212200002123000056
:101DC000E40000209000002038010020480100209D
:101DD000C0020020A00000206201002030C80110D5
:101DE000A05B00008800400063010020C020074085
:101DF000A45B0000F4FFFF1FD00200207C01002044
:101E0000341CFB889E4200D91E1C371E402F00D96F
:101E10004027201C391CFFF787FDE419F61B03D16E
:101E2000351C402F04D010E04025B54200D9351CA8
:101E3000201C291CFFF778FD6419761B01D1402D69
:101E400003D1754D754B2C601E800122744B3AE016
:101E5000744B1988744B994210D10023D05C73499C
:101E6000C8540133072BF9D10B68862B02D1704B74
:101E70000F221A700020011CFFF756FD6D4B2B60DE
:101E800022E0654F3D68002D13D064490E88341E52
:101E9000402C00D94024281C211CFFF745FD361B8F
:101EA0005E4AB6B21680002E01D1402C00D12E1908
:101EB0003E605C4BA0221988D200914204D10022DE
:101EC0005A709A785C4B1A700122554B61E0D2002F
:101ED000A4186068013E0838F6B22B4036D000F0F6
:101EE0000BFF5649B0004258554B002A1BD055688D
:101EF0004550111C985D0831616003280BD802F031
:101F000075FA02040608032104E0022102E005211B
:101F100000E0042199558823270700D5C82312889B
:101F2000120413433CE0985D032808D802F05EFADF
:101F300039390204002200E001229A5531E02C4098
:101F4000624262410324A41A9C552AE062880280FE
:101F5000002A20D03B4D43804360B3005F593A498B
:101F6000002F01D1585101E0CD586860C850374B5F
:101F70007600F15A5218F25200F0A0FE002804D068
:101F80000830606021070AD507E0314B20601A78DD
:101F900001321A7005E02C4201D0264B00E02D4B97
:101FA00023602D4A0823137081E5012004421ED0CE
:101FB0001B4902230B70294B264C1A70284B294DC4
:101FC0001C609C60284C1A61DC609A615D60274B44
:101FD0000D241C70264CFF232370174C3370227085
:101FE000244A1370244B9F221A70087013E063B2C6
:101FF000002B04DA1D4B0D221A708023337002234C
:102000001C4204D01A4A1178C9B2117033701023DF
:102010001C4200D03370F7BD8C000020600100200E
:10202000942007405801002021200000C802002011
:10203000F5000020C800400098200740380100202B
:10204000A0000020E400002090000020C00200203A
:10205000620100208800400080200740F40000203A
:1020600000F8FF1FA4000020F8000020C020074057
:10207000882007408C2007408420074010B500F0DE
:1020800063FE00221A4B0021D1509818083241609B
:10209000882AF7D1174A80201468C00220431060B4
:1020A000180A154AC0B21070180C144AC0B2107049
:1020B000134A1B0E1370134AFF231370124A13485E
:1020C0001370134A137001220270124801701249F2
:1020D0000A70124A116899430B1C70210B4313605C
:1020E0000F4B802252041A600E4B10221A7010BD42
:1020F00000F8FF1F348004409C200740B0200740B8
:10210000B4200740802007408820074094200740E3
:1021100010200740002107408420074018E400E019
:1021200000E100E00821074038B5114C2368002B7E
:102130000CD020684288531C8218157A028893427A
:1021400012D300F0D9FD002323600EE0094B1B7869
:10215000002B02D10120404208E00320FFF702FCDF
:1021600020600028E5D1F5E74380281C38BDC04633
:10217000780100206B01002010B50D4C2368002B66
:1021800003D02368002B0ED103E00A4B1B78002BF1
:1021900002D10120404209E00320FFF7E3FB206069
:1021A0000028EED1F5E75A889B18187A10BDC04672
:1021B000780100206B010020054B9888054B1B68B7
:1021C000002B03D01A885B88D31AC0187047C0460A
:1021D000C00200207801002010B50A4B1B78002BAC
:1021E0000FD0094C2068002803D000F085FD0023A3
:1021F00023600320FFF7B6FB002802D000F07CFD2F
:10220000F7E710BD6B01002078010020F7B5304DD5
:102210000123071C0C1C2B70002C56D02D4E30684F
:10222000002827D12C4A01922C4B1B78DBB2002BC3
:1022300003D12B700120404249E00420FFF7ACFBA2
:10224000072808D801232B7000F038FD214B1860B7
:1022500000280FD128700198214B013801900028E7
:1022600002D01A78002A02D001221A70E2E700F0A8
:10227000AFF8D9E71A4B002231681A704B8840201A
:10228000C01A0094844200D90090181C009A0830AB
:102290009B1808184B800190A41A002300988342D1
:1022A00004D0F85C019AD0540133F7E7FF184B884B
:1022B0003F2B06D940230B800420FFF7B9FB0023F6
:1022C0003360084B05221A70A6E72C70201CFEBD57
:1022D0006E01002070010020097500006B010020D4
:1022E000740100206D01002007B56B46D8710733DB
:1022F000181C0121FFF78AFF0EBDFFFFF8B5124B36
:102300001B78002B1ED0114F114B3C6801261E700C
:10231000104D002C09D000262E70638804202380E5
:10232000211CFFF785FB3E6009E000F0C7FC011EA1
:1023300004D004202C70FFF77BFB00E02E70044AD1
:1023400000231370F8BDC0466B010020700100200F
:102350006E0100206D01002038B50E4B1D78EDB2E6
:10236000002D15D10C4C2168002906D04B88042083
:102370000B80FFF75DFB25600AE000F09FFC011E6B
:1023800003D00420FFF754FB02E0044B01221A7033
:1023900038BDC0466E010020700100206D01002094
:1023A00037B50224051C221C01A8054901F04AF892
:1023B0002B68281C5B6801A9221C98473EBDC046BB
:1023C000DC5A000008B503685B689847002008BD28
:1023D00010B5104C2378002B1BD101232370FFF77D
:1023E000EBFE002801D000F0F8FFFFF711F90028FC
:1023F00001D000F0A9F800F05FFE002801D000F045
:1024000043F900F04BFB002801D000F0B7FF002398
:10241000237010BD7D01002008B5FEF7F5FCFEF726
:1024200025FDFFF7D5FFFAE708B50368C9B21B68B9
:10243000984708BD08B50368C9B21B68984708BD2E
:1024400008B50368C9B21B68984708BD08B503689A
:10245000C9B21B68984708BD08B5044B4808C018A6
:1024600001F0D8FFFEF78EFE08BDC046C0C62D00A5
:1024700010B5064B4808C018141C01F0CBFFFEF73E
:1024800081FE201CFEF7F2FE10BDC046C0C62D0026
:1024900008B5FEF71DFF08BD08B5081CFEF752FF82
:1024A00008BD08B5081CFEF7C5FF08BD08B5081C27
:1024B000111CFEF769FF08BD08B5081CFFF702F8FC
:1024C000431E9841C0B208BD08B5081CFFF720F8AC
:1024D000431E9841C0B208BD08B5FFF799F808BD82
:1024E00008B5FFF7D5F808BD08B5FFF7A1F808BD96
:1024F00008B5FFF76FF808BD08B5FFF7E5F808BDA8
:1025000008B5FFF773F808BD08B5081CFFF702F817
:10251000012008BD08B5081CFEF7FCFF012008BD1E
:1025200010B5081C141C111CFFF748F8201C10BD26
:1025300038B5081C0D1C01F0CDF8041C211C281C0A
:10254000FFF73CF8201C38BD7047FFFF044B00220A
:102550001A711A73FA21034A890099601A60704748
:1025600080010020E85A000008B50368C9B21B6862
:10257000984708BD08B50368C9B21B68984708BDED
:1025800008B50368C9B21B68984708BD08B5036859
:10259000C9B21B68984708BD08B5044B4808C01865
:1025A00001F038FF00F00AFC08BDC04660E31600E9
:1025B00010B5064B4808C018141C01F02BFF00F0A2
:1025C000FDFB201C00F042FC10BDC04660E316007D
:1025D00008B500F06DFC08BD08B5081C00F0A2FCB1
:1025E00008BD08B5081C00F0C0FC08BD08B5081CF3
:1025F000111C00F0B9FC08BD08B5081C00F0B6FCC1
:10260000431E9841C0B208BD08B5081C00F0D4FCB8
:10261000431E9841C0B208BD08B500F04DFD08BD8D
:1026200008B500F089FD08BD08B500F055FD08BDEE
:1026300008B500F023FD08BD08B500F099FD08BD00
:1026400008B500F027FD08BD08B5081C00F0B6FC71
:10265000012008BD08B5081C00F0B0FC012008BD31
:1026600010B5081C141C111C00F0FCFC201C10BD33
:1026700038B5081C0D1C01F02DF8041C211C281C69
:1026800000F0F0FC201C38BD7047FFFF044B002217
:102690001A711A73FA21034A890099601A60704707
:1026A00090010020485B0000204B802219685201F5
:1026B0000A431A601E4A002313701E4A13701E4AF2
:1026C00013701E4A13701E4A13701E4B1B78062B84
:1026D00004D0072B05D11C4A1C4B01E01A4A1C4BA5
:1026E0001A601C4B1B78082B05D0142B07D1D12264
:1026F0009200194B02E0D122184B92001A60184B3D
:10270000C204D20E1A70C0B2002258709A702C22E5
:10271000DA70144B144A19680A408021C9030A432D
:102720001A60124B8022D2011A6070473480044034
:1027300010020020A5010020180200201102002034
:10274000A401002068FDFF1F1303000008C004401F
:1027500010C0044069FDFF1F14C004400CC00440B9
:1027600000C006400CE400E0FFFF00FF00E100E0D5
:1027700010B5174B132299789143032202400A4364
:10278000410701D510210A439A700F2210490240D7
:10279000042A03D18A79402422438A715A7910216C
:1027A0008A43084200D00A435A7199791022914312
:1027B000840600D51143064A9971C10506D55378A0
:1027C00011782020DBB201431170537010BDC04658
:1027D00000C0064008B5124B1B68DA041ED5114B29
:1027E0001B78DBB2002B02D0FFF7F2FDF7E70E4AB1
:1027F0008021C90111600D4A0D49D3700422FF32B6
:102800000A600C490A600C4A13700C4A13700C4B96
:102810001B68002B02D00B4A12781A7108BDC04603
:1028200034800440A401002080E100E000C00640A4
:1028300008C004400CC0044010020020A501002084
:10284000A0010020CE01002038B5041C0B4B1D78E0
:10285000EDB2002DFAD1201C0121FEF7ABFB291CA3
:10286000201CFEF787FB0C225443054B054AE15818
:102870001C191160044B227A1A7038BDA401002083
:1028800098590000140200200F02002030B50029E2
:1028900001D080231843154A1378141C984224D081
:1028A000134A1268D5041FD57F221340082B04D089
:1028B000142B05D100220F4B01E00F4B00221A60B0
:1028C0004423002900D060237F220240082A06D03A
:1028D000142A09D1C02292001343064A03E0C02201
:1028E00092001343044A1360207030BD69FDFF1F3E
:1028F0003480044014C004400CC0044010B50F4A9A
:102900001378984218D00E490968CC0413D5062BC9
:1029100004D0072B05D100210A4B01E00A4B00210E
:102920001960062804D0072805D10849054B01E0A5
:102930000649054B1960107010BDC04668FDFF1FA9
:102940003480044008C0044010C004401303000059
:1029500038B50E4B1A680023D10414D50C4C1A2834
:1029600010D80C2343430B4A0B4D9958D3181B7AAC
:10297000216001212B70FEF71DFB23682A781A7253
:10298000012300E02360181C38BDC0463480044099
:10299000A001002098590000CE01002000207047BF
:1029A000F8B5214B071C1B68DA043BD51F4B1B688D
:1029B000002B02D01E4A12781A711E4E0023347862
:1029C00027220134A2425B415B421C401A4D2B7806
:1029D000A3421CD1FEF77CFF402813DC174A137971
:1029E0005BB2002BF2DA2B780021013327209842CA
:1029F000494149420B401249C95CDBB2C9B2D171AD
:102A00002B70E3E7FF28E1DDFFF7E2FCDEE70C4B8C
:102A1000FFB21F550B4B01221A70084BE4B2AC22D7
:102A20003470DA70F8BDC0463480044014020020CF
:102A30000F020020180200201102002000C00640F2
:102A4000A6010020A401002038B5041C4518AC42A2
:102A500004D02078FFF7A4FF0134F8E738BDFFFF6A
:102A600008B5044B1B78002B02D0FFF7B1FCF8E748
:102A700008BDC046A4010020064B074A1B78107809
:102A8000DBB2C0B2834201D3273000E00138C01A64
:102A90007047C0461802002011020020054B18782C
:102AA000054BC0B21B78DBB2984200D24030C01A4E
:102AB0007047C04610020020A501002010B5124B3F
:102AC00012491A780B78D2B2DBB29A4219D001338C
:102AD0003F2400209C424041404203400C48DCB26D
:102AE000C05C0C700B49C0B2096800290BD09A4237
:102AF00000D24032D31A1A2B05DC074B1B780B721D
:102B000001E00120404210BD10020020A50100207C
:102B1000CF010020A0010020CE0100200A4B1A782E
:102B20000A4B1B78DBB29A420AD0013300223F21C4
:102B30009942524152421340054AD05CC0B201E072
:102B4000012040427047C04610020020A50100202D
:102B5000CF010020064B1A78064BD2B21A70064BF2
:102B60001B68002B02D0054A12781A727047C046C3
:102B7000A501002010020020A0010020CE010020AD
:102B800030B52E4A1379990624D52D49D4790B787E
:102B9000002001333F259D424041404203402948E7
:102BA000E4B20078834203D02748C454D8B20870F6
:102BB0002649086800280DD025490978C9B28B42FA
:102BC00001D35B1A01E05B1A4033272B02DD214B56
:102BD0001B780371D178194CC9B24BB2002B1ADAA9
:102BE00023795BB2002B16DA1B4B19481D7803784A
:102BF000DBB29D4202D16C23E3700CE00133002470
:102C000027259D42644164422340144CE45CDBB2BE
:102C1000E4B2D4710370402319420ED011791942E5
:102C20000BD00F4B002119700E4B1B688B4202D04A
:102C30000D49097819722C23D37030BD00C00640AD
:102C400010020020A5010020CF010020A0010020DB
:102C500011020020CE01002018020020A601002051
:102C6000A4010020140200200F020020F8B5061C69
:102C70000D1C171C0024301C391C01F00FFC092905
:102C800001D8303100E03731C9B22955301C391C28
:102C900001F0C0FB061E01D00134ECE72B1958707F
:102CA0002B1C5A1BA24206DA1A78295D19702A5584
:102CB0000133013CF5E7281CF8BDFFFF38B572B6BB
:102CC0000B4C2568281C01F06DFC0B2802D962B65C
:102CD00000200CE080231B06C3409D43256062B6A4
:102CE00048235843034B181800230360436038BD42
:102CF0006CFDFF1F00FAFF1F10B5041C0E48482191
:102D0000201A01F087FB0B2815D80C4B1B78002BE1
:102D100007D00B4B1B78002B03D0201CFEF74EFE78
:102D200009E072B68022074B1206C240101C1A68D6
:102D30001043186062B610BD00FAFF1F6201002048
:102D40006B0100206CFDFF1F1FB572B6154B702282
:102D50001A70154A41211170144A0F2111708022F6
:102D60001A701A7852B2002AFBDA114B186862B650
:102D7000104B984201D80A23584301AC211C0A2267
:102D8000FFF774FF0023E15C0B4A002905D05800CF
:102D90001018013341800A2BF5D101335B00137009
:102DA0001FBDC0460000024007000240060002406E
:102DB000080002407F969800F8FDFF1F164B802206
:102DC000196812010A431A60144A00231370144A46
:102DD00014491370144A1370144A1370144A137070
:102DE000144A1160144AD12189001160134AC104A8
:102DF000C90EC0B21170507093702C23D370104B59
:102E0000104A19680A408021C9010A431A600E4B12
:102E1000802292011A607047348004408C020020A6
:102E20002102002013030000940200208D020020E4
:102E3000200200200CB0044010B0044000B0064056
:102E40000CE400E0FF00FFFF00E100E010B5174BCD
:102E5000132299789143032202400A43410701D586
:102E600010210A439A700F2210490240042A03D10C
:102E70008A79402422438A715A7910218A43084270
:102E800000D00A435A71997910229143840600D5E3
:102E90001143064A9971C10506D55378117820204F
:102EA000DBB201431170537010BDC04600B0064044
:102EB00008B5124B1B681A051ED5114B1B78DBB2E7
:102EC000002B02D0FFF784FAF7E70E4A8021890130
:102ED00011600D4A0D49D3700422FF320A600C497B
:102EE0000A600C4A13700C4A13700C4B1B68002BC1
:102EF00002D00B4A12781A7108BDC04634800440D3
:102F00002002002080E100E000B006400CB0044048
:102F100010B004408C020020210200201C0200207E
:102F20004A02002038B5041C0B4B1D78EDB2002D71
:102F3000FAD1201C0121FEF73DF8291C201CFEF7C8
:102F400019F80C225443054B054AE1581C1911602D
:102F5000044B227A1A7038BD2002002098590000D4
:102F6000900200208B0200207047704738B50E4B4E
:102F70001A680023110514D50C4C1A2810D80C23FC
:102F800043430B4A0B4D9958D3181B7A21600121FA
:102F90002B70FEF70FF823682A781A72012300E0DD
:102FA0002360181C38BDC046348004401C02002039
:102FB000985900004A02002000207047F8B5214BC4
:102FC000071C1B681A053BD51F4B1B68002B02D042
:102FD0001E4A12781A711E4E0023347827220134BB
:102FE000A2425B415B421C401A4D2B78A3421CD18C
:102FF000FEF76EFC402813DC174A13795BB2002BF6
:10300000F2DA2B78002101332720984249414942C6
:103010000B401249C95CDBB2C9B2D1712B70E3E736
:10302000FF28E1DDFFF7D4F9DEE70C4BFFB21F55B7
:103030000B4B01221A70084BE4B2AC223470DA70E8
:10304000F8BDC04634800440900200208B0200206E
:10305000940200208D02002000B0064022020020D1
:103060002002002038B5041C4518AC4204D020785A
:10307000FFF7A4FF0134F8E738BDFFFF08B5044BA4
:103080001B78002B02D0FFF7A3F9F8E708BDC04674
:1030900020020020064B074A1B781078DBB2C0B232
:1030A000834201D3273000E00138C01A7047C04680
:1030B000940200208D020020054B1878054BC0B209
:1030C0001B78DBB2984200D24030C01A7047C0462D
:1030D0008C0200202102002010B5124B12491A78F0
:1030E0000B78D2B2DBB29A4219D001333F240020D0
:1030F0009C424041404203400C48DCB2C05C0C7032
:103100000B49C0B2096800290BD09A4200D2403264
:10311000D31A1A2B05DC074B1B780B7201E0012038
:10312000404210BD8C020020210200204B020020F2
:103130001C0200204A0200200A4B1A780A4B1B7816
:10314000DBB29A420AD0013300223F219942524118
:1031500052421340054AD05CC0B201E00120404217
:103160007047C0468C020020210200204B02002044
:10317000064B1A78064BD2B21A70064B1B68002B0E
:1031800002D0054A12781A727047C0462102002008
:103190008C0200201C0200204A02002030B5254A83
:1031A0001379990612D52449D4790B78002001337C
:1031B0003F259D424041404203402048E4B2007810
:1031C000834203D01E48C454DBB20B70D178194C33
:1031D000C9B24BB2002B1ADA23795BB2002B16DA94
:1031E000184B19481D780378DBB29D4202D16C233D
:1031F000E3700CE00133002427259D4264416442C2
:103200002340124CE45CDBB2E4B2D471037040237F
:1032100019420ED0117919420BD00D4B00211970B3
:103220000C4B1B688B4202D00B49097819722C2376
:10323000D37030BD00B006408C0200202102002077
:103240004B020020940200208D0200202202002068
:1032500020020020900200208B02002008B50368A5
:10326000C9B21B68984708BD08B50368C9B21B6896
:10327000984708BD08B50368C9B21B68984708BDE0
:1032800008B50368C9B21B68984708BD08B5044B68
:103290004808C01801F0BEF8FFF706FA08BDC0469E
:1032A00060E3160010B5064B4808C018141C01F066
:1032B000B1F8FFF7F9F9201CFFF75AFA10BDC04624
:1032C00060E3160008B5FFF785FA08BD08B5081CCD
:1032D000FFF7BAFA08BD08B5081CFFF70FFB08BDD9
:1032E00008B5081C111CFFF7D1FA08BD08B5081C69
:1032F000FFF72EFB431E9841C0B208BD08B5081C5D
:10330000FFF74CFB431E9841C0B208BD08B5FFF75C
:10331000C5FB08BD08B5FFF701FC08BD08B5FFF700
:10332000CDFB08BD08B5FFF79BFB08BD08B5FFF74F
:1033300011FC08BD08B5FFF79FFB08BD08B5081CC8
:10334000FFF72EFB012008BD08B5081CFFF728FB7E
:10335000012008BD10B5081C141C111CFFF774FBDC
:10336000201C10BD38B5081C0D1C00F0B3F9041C5E
:10337000211C281CFFF768FB201C38BD7047FFFF8D
:10338000044B00221A711A73FA21034A89009960CA
:103390001A60704798020020005C000008B5FEF734
:1033A0000BFF08BD08B5FEF7BFFE08BD08B5FEF768
:1033B000E3FE08BD08B5FEF7A1FF08BD08B5FEF79E
:1033C0000BFF08BD08B5081CFEF78EFF08BD08B549
:1033D000081C111CFEF71AFF08BD7047044B0022A1
:1033E0001A711A73FA21034A890099601A607047AA
:1033F000A8020020605C000070B50E4B0E4D00244A
:10340000ED1AAD101E1CAC4204D0A300F35898472F
:103410000134F8E702F0A2FC084B094D0024ED1A34
:10342000AD101E1CAC4204D0A300F35898470134E1
:10343000F8E770BD685D0000685D0000685D000031
:10344000805D000010B50023934203D0CC5CC454CF
:103450000133F9E710BD031C8218934202D01970A2
:103460000133FAE77047FFFF30B5002940D0043937
:103470000B68002B00DAC9181E4A1368141C002BB5
:1034800002D14B60116033E099420FD208680A18EC
:103490009A4205D113685268C01808604A6000E07B
:1034A0004B60216024E08A4203D8131C5A68002A2A
:1034B000F9D11D685C198C420BD10968691858183C
:1034C0001960904214D114685268091919605A6041
:1034D0000EE08C4202D90C23036009E008680C1846
:1034E000944203D114685268001908604A60596018
:1034F00030BDC046BC02002070B50323CD1C9D43E7
:103500000835061C0C2D01D20C2505E0002D03DA30
:103510000C233360002040E08D42F9D31F4B1C6820
:103520001A1C211C002913D00868431B0DD40B2B37
:1035300002D90B60CC181EE08C4202D16368136084
:103540001AE0486860600C1C16E00C1C4968E9E74A
:10355000134C2068002803D1301C00F0A9F820602B
:10356000301C291C00F0A4F8431CD1D0C41C032338
:103570009C4384420AD12560201C0B300722231D66
:103580009043C31A09D05A42E25006E0211A301C77
:1035900000F08EF80130EED1BAE770BDBC02002019
:1035A000B80200200FB40B4B13B51C68002C05D0DB
:1035B000A369002B02D1201C00F06AFA05ABA168B8
:1035C000201C049A019300F06FFB16BC08BC04B0E9
:1035D0001847C04670FEFF1F70B5051C0E1C002862
:1035E00004D08269002A01D100F052FAAC68A389A4
:1035F0001A0702D52369002B19D1281C211C00F0C1
:10360000DDF8002813D00120404245E03178002B3E
:103610001BDAA269934211DA281C221C00F062F81E
:10362000013043425841C0B20028ECD10136A368B2
:103630003278013BA360002AE8D10CE023681970BE
:10364000236819780A2903D1E6E7226811702368F4
:1036500001332360EAE7002B17DAA269934208DB03
:1036600022680A231370236819780A2911D1281CAB
:1036700001E0281C0A21221C00F034F801304342EA
:103680005841C0B2002806D0BDE722680A23137053
:103690002368013323600A2070BDFFFF08B5034B88
:1036A000011C1868FFF798FF08BDC04670FEFF1F99
:1036B00038B5074C0023051C081C2360FEF7F0F802
:1036C000431C03D12368002B00D02B6038BDC046BB
:1036D000D40200200023C25C0133002AFBD1581E13
:1036E0007047FFFF70B5051C0E1C141C002804D089
:1036F0008269002A01D100F0CBF9234B9C4201D111
:103700006C6808E0214B9C4201D1AC6803E0204B7F
:103710009C4200D1EC68A369A360A3891A070AD56B
:103720002369002B07D022682369F6B2D01A626998
:1037300090420FDB08E0281C211C00F03FF8002815
:10374000F1D0012040421DE0281C211C00F032F97C
:103750000028F6D1A3680130013BA36023685A1CFE
:1037600022601E706369984205D0A389301CDA0775
:1037700008D50A2E06D1281C211C00F01BF90028B0
:10378000DFD1301C70BDC046885C0000A85C000022
:10379000C85C000038B5084C051C00202060081CDF
:1037A000111C1A1CFEF70EFE431C03D12368002BCC
:1037B00000D02B6038BDC046D4020020344B70B519
:1037C0001D68061C0C1C002D05D0A969002902D11A
:1037D000281C00F05DF92F4B9C4201D16C6808E079
:1037E0002D4B9C4201D1AC6803E02C4B9C4200D194
:1037F000EC68A28993B2190721D4D90605D409230C
:10380000336040231A43A2813FE05A0713D5616B0E
:10381000002908D0231C4433994202D0301CFFF702
:1038200023FE00236363A38924229343A3810023FF
:10383000636023692360A38908221343A38121695C
:1038400000290BD1A389A02292001A4080239B005B
:103850009A4203D0301C211C00F0AEF9A38901224A
:103860001A4005D061690022A2604A42A26103E0C9
:10387000990700D46269A26022690020824206D1C1
:10388000190604D540221343A3810120404270BD94
:1038900070FEFF1F885C0000A85C0000C85C000090
:1038A000F7B58B89051C0C1C19075ED46268002AC9
:1038B00002DC276C002F1ADDE76A002F17D00022E8
:1038C0002E682A60802252011A4001D0626D15E0F4
:1038D000281C216A0123B847021C411C0ED12B6809
:1038E000002B0BD01D2B01D0162B02D12E600020F7
:1038F0005EE0A38940210B43A38159E0A3895F07C0
:1039000006D56168636B521A002B01D0276CD21B5D
:10391000281C216A0023E76AB847A289411C06D106
:103920002B68002B03D01D2B01D0162B19D100239F
:10393000636023692360D70405D5411C02D12A683E
:10394000002A00D16065616B2E600029CFD0231C56
:103950004433994202D0281CFFF786FD00206063A3
:1039600026E040231A43A28122E02669002EBED021
:1039700027680022BF1B01972660990700D1626962
:10398000A260019F002FB2DD281C216A321C019B1E
:10399000A76AB847002806DCA38940221343012008
:1039A000A381404204E0019F36183F1A0197E8E7DF
:1039B000FEBDFFFF0A6938B5051C0C1C002A01D1A9
:1039C00000201CE0002804D08369002B01D100F006
:1039D0005FF80B4B9C4201D16C6808E0094B9C429C
:1039E00001D1AC6803E0084B9C4200D1EC680C228A
:1039F000A35E002BE4D0281C211CFFF751FF38BD2B
:103A0000885C0000A85C0000C85C000008B50249A2
:103A100000F0B0F808BDC046753F0000002310B5A7
:103A2000041C03604360836081814366C28103613B
:103A300043618361191C08225C30FFF70CFD054BC4
:103A400024626362044BA362044BE362044B23636E
:103A500010BDC046B93E0000E13E0000193F000025
:103A6000453F000070B54B1E68255D430E1C291CA8
:103A70007431FFF741FD041E08D00021016046604B
:103A80002A1C0C30A0606832FFF7E5FC201C70BDDA
:103A9000836913B5041C002B27D18364C3640365B9
:103AA000124B134A1B688262984201D10123836141
:103AB000201C00F01FF86060201C00F01BF8A060C4
:103AC000201C00F017F80421E06000226068FFF776
:103AD000A5FFA06809210122FFF7A0FFE0681221DD
:103AE0000222FFF79BFF0123A36113BD845C00004A
:103AF0000D3A0000F8B51D4B071C1E68B269002A7C
:103B000002D1301CFFF7C4FF4836B4687368013B2C
:103B100005D40C22A55E002D10D06834F7E7336879
:103B2000002B06D1381C0421FFF79CFF30600028D1
:103B300001D03668E9E70C233B6016E001235B42C5
:103B4000E381201C0123A38165662560A560656073
:103B500025616561A5615C30291C0822FFF77BFCAB
:103B60006563A563A564E564201CF8BD845C000062
:103B700070477047F7B5041C071C019148340026B4
:103B8000002C16D06268A5680092009A013A009253
:103B90000DD4AB89012B08D90E22AB5E013304D0C2
:103BA000381C291C019B984706436835EDE72468BB
:103BB000E6E7301CFEBDFFFFF0B58B8991B0051C18
:103BC0000C1C9A0725D40E23C95E002906DAA789A2
:103BD00080231F400FD0002740260EE001AA00F0EE
:103BE00021FA0028F3DB029BF0273F02184A1F400E
:103BF000BF187B425F418026F600281C311CFFF76E
:103C00007BFC00280CD1A3899A051FD40222134300
:103C1000A381231C4733236023610123636115E0E3
:103C20000C4B8022AB62A38920601343A3812061E7
:103C30006661002F0AD00E23E15E281C00F004FA12
:103C4000002803D0A38901221343A38111B0F0BD42
:103C500000E0FFFF0D3A0000936810B5013B936050
:103C6000002B05DA9469A34208DBCBB20A2B05D0FE
:103C70001368581C10601970C8B201E0FFF732FDDC
:103C800010BDF8B5061C0F1C141CD518AC4208D08A
:103C90002178301C3A1CFFF7DFFF0134431CF5D1BB
:103CA00000E00020F8BDFFFFF0B59FB0061C0F1C20
:103CB00003920593002804D08169002901D1FFF700
:103CC000E7FE754B9F4201D1776808E0734B9F4236
:103CD00001D1B76803E0724B9F4200D1F768BB89FE
:103CE0001A070AD53B69002B07D006AD00236B618C
:103CF00020236B763023AB763BE0301C391CFFF77A
:103D00005DFD0028F1D001204042C2E0059A111D5E
:103D100012680591002A76DB0992013423782E2B54
:103D200000D181E021785F48032200F0B3F9002838
:103D300007D05C492A68431A402098401043286005
:103D400001342178631C584806220393297600F039
:103D5000A1F9002800D18AE0544B002B7ED1059BAD
:103D6000072207339343083305936A69049953186C
:103D70006B61039C2378002B04D10399611A029193
:103D800010D003E0252BF8D00134F3E7301C391CA8
:103D9000039A029BFFF775FF013075D06A6902999B
:103DA00053186B612378002B6ED0012252426A6057
:103DB0006A4600235B3201342B60EB60AB6013700A
:103DC000AB6521783A48052200F064F9002808D054
:103DD000374A0134831A012098402B681843286021
:103DE000EFE72B68D90603D56A4620215B321170B4
:103DF0001A0703D56A462B215B32117022782A2AD2
:103E000084D0099B05E05242EA60022213432B60F2
:103E100083E72278303A092A04D80A214B43013437
:103E20009B18F6E7099379E763782A2B09D1059B5C
:103E300002341A1D1B680592002B0DDA01235B4228
:103E40000AE0013400232278303A092A04D80A21F2
:103E50004B4301349B18F6E7079363E705AB0093E8
:103E6000301C291C3A1C134B00E000BF07E005ABD7
:103E70000093301C291C3A1C0E4B00F08BF9049067
:103E80000499013100D070E7BB895A0600D53AE7A2
:103E90000B981FB0F0BDC046885C0000A85C000015
:103EA000C85C0000EE5C0000F25C00000000000056
:103EB000E85C0000833C000038B50C1C0E25495F0F
:103EC00000F080FA002803DB626D1318636503E0DD
:103ED000A289024B1340A38138BDC046FFEFFFFF0C
:103EE000F8B51E1C8B89051C0C1C171CDA0505D5A2
:103EF0000E23C95E0022022300F0B8F8A289054B08
:103F0000281C1340A3810E22A15E331C3A1CFFF72C
:103F100041FCF8BDFFEFFFFF38B50C1C0E25495FD3
:103F200000F0A4F8A389421C03D1054A1340A381E1
:103F300004E0802252011343A381606538BDC0466E
:103F4000FFEFFFFF08B50E23C95E00F001F808BDC2
:103F500038B5074C0023051C081C2360FDF7AAFC9C
:103F6000431C03D12368002B00D02B6038BDC04612
:103F7000D402002070B5051C0C1E01D1002049E0C0
:103F8000002804D08269002A01D1FFF781FD224B6D
:103F90009C4201D16C6808E0204B9C4201D1AC6886
:103FA00003E01F4B9C4200D1EC680C22A35E002B67
:103FB000E4D0281C211CFFF773FC236B061C002B8C
:103FC00006D0281C216A9847002801DA012676428B
:103FD000A3891A0603D5281C2169FFF745FA616BEE
:103FE000002908D0231C4433994202D0281CFFF733
:103FF0003BFA00236363A16C002904D0281CFFF75F
:1040000033FA0023A364FFF7B3FD0023A381FFF776
:10401000B0FD301C70BDC046885C0000A85C00008C
:10402000C85C000038B5074C0023051C081C111C97
:104030002360FDF742FC431C03D12368002B00D012
:104040002B6038BDD402002038B5074C0023051C76
:10405000081C2360FDF736FC431C03D12368002BAA
:1040600000D02B6038BDC046D402002038B5084CC3
:10407000051C00202060081C111C1A1CFDF724FCE4
:10408000431C03D12368002B00D02B6038BDC046F1
:10409000D4020020C9B28218904204D003788B4227
:1040A00002D00130F8E700207047F7B5151C0193E6
:1040B0000A698B68061C0C1C934200DA131C221C34
:1040C0002B6043321278002A01D001332B60206824
:1040D000800602D52B6802332B60216806270F402B
:1040E0001FD0231C43331B785A1E9341226892062B
:1040F0001FD5E11840313020C870211C5A1C4531B1
:104100000978A21840320233D17012E0221C301C10
:10411000019919320123089FB847013011D0009F3F
:1041200001370097E0682968009F431A9F42EDDB42
:10413000D7E7221C301C01994332089FB847013051
:1041400002D10120404223E0206806212B68E2686A
:1041500001400025042903D1D51AEB43DB171D408C
:10416000A26823699A4201DDD31AED18002700974F
:10417000009FAF420BDA221C301C01991A32012336
:10418000089FB8470130DCD0009F0137EFE70020DF
:10419000FEBDFFFFF0B50D1C8BB0433507930590B6
:1041A000069204950A7E0C1C109B6E2A00D1A8E092
:1041B00011D8632A22D009D8002A00D1B1E0582AA8
:1041C00000D0C1E045310A707C4D4FE0642A1DD01B
:1041D000692A1BD0B8E0732A00D1A6E009D86F2A5B
:1041E0002AD0702A00D0AFE00E68202232430A6045
:1041F00037E0752A20D0782A33D0A5E01A680D1C44
:10420000111D1960136842352B70A0E021681A68EF
:104210000E0603D5111D1960166805E04806F9D58C
:10422000111D19600021565E644B002E3BDA049D7F
:104230002D2276422A7036E021681A680E0603D5D0
:10424000111D1960166804E04806F9D5111D16887D
:1042500019605A4B227E039308276F2A1ED00A2723
:104260001CE0221C78214532554D117019682268D6
:10427000081D03951860160601D50E6802E0500669
:10428000FBD50E88D10702D520231A4322601027C0
:10429000002E03D1226820239A432260231C00228F
:1042A00043331A7001E003930A276368A360002B6D
:1042B00003DB2568042295432560002E02D1049D6E
:1042C000002B0ED0049D301C391C00F0E7F8039839
:1042D000013D435C301C2B70391C00F09BF8061E1E
:1042E000F1D1082F09D12168C90706D56268236971
:1042F0009A4202DC013D30232B70049E731B236124
:104300002AE008681A684969050606D4460604D5F5
:10431000101D18601368198003E0101D18601368E1
:10432000196000232361049D16E01A68111D1960AD
:104330001568281CFFF7CEF963682061984200D900
:1043400023612069606004E0251C42352A70012346
:104350002361049E00233370079E05980096211C5C
:1043600009AA069BFFF7A1FE013002D101204042BD
:1043700021E02A1C059806992369079DA84701306A
:10438000F4D02668B60705D4099BE068984212DA93
:10439000181C10E00025E0680999431A9D42F3DAE1
:1043A000221C0598069919320123079EB047013057
:1043B000DCD00135EFE70BB0F0BDC046F95C000082
:1043C0000A5D000038B5084C051C00202060081C60
:1043D000111C1A1CFDF76CFA431C03D12368002B37
:1043E00000D02B6038BDC046D402002002B4714614
:1043F00049084900095C49008E4402BC7047C04628
:1044000003B47146490840004900095A49008E44E6
:1044100003BC7047002934D00123002210B4884225
:104420002CD301242407A14204D2814202D20901E3
:104430001B01F8E7E400A14204D2814202D2490004
:104440005B00F8E7884201D3401A1A434C08A042A7
:1044500002D3001B5C0822438C08A04202D3001B3D
:104460009C082243CC08A04202D3001BDC08224354
:10447000002803D01B0901D00909E3E7101C10BC78
:104480007047002801D00020C04307B4024802A1B1
:104490004018029003BDC046190000000029F0D06A
:1044A00003B5FFF7B9FF0EBC4243891A1847C0464F
:1044B0007047C0468446101C62468C46191C6346F1
:1044C00000E0C0461FB500F081FA002801D40021A9
:1044D000C8421FBD10B500F0B1F94042013010BD17
:1044E00010B500F073FA002801DB002010BD012098
:1044F00010BDC04610B500F069FA002801DD0020AB
:1045000010BD012010BDC04610B500F0E1F9002833
:1045100001DC002010BD012010BDC04610B500F028
:10452000D7F9002801DA002010BD012010BDC046D7
:104530008446081C6146FFE71FB500F0E3F8002839
:1045400001D40021C8421FBD10B500F069F84042F7
:10455000013010BD10B500F0D5F8002801DB0020B7
:1045600010BD012010BDC04610B500F0CBF80028EA
:1045700001DD002010BD012010BDC04610B500F0C7
:1045800079F8002801DC002010BD012010BDC046D4
:1045900010B500F06FF8002801DA002010BD0120EE
:1045A00010BDC0461C2101231B04984201D3000CFE
:1045B00010391B0A984201D3000A08391B09984296
:1045C00001D30009043902A2105C40187047C046AC
:1045D00004030202010101010000000000000000CC
:1045E00038B50E4B0C4A041C0D1CFFF797FF002832
:1045F00004D1201C291C01F02BF838BD074B064ABA
:10460000201C291C00F0F0FC01F022F880231B067E
:10461000C018F2E7C046C046000000000000E041BC
:104620004A02430270B55C0A550A43004A001B0E59
:10463000C60F120EC90FFF2B05D0FF2A08D001208C
:1046400093420BD070BD0120002CFBD1FF2AF6D184
:104650000120002DF6D101209342F3D1AC42F1D1DB
:104660008E4205D0002BEDD1201C441EA041E9E76D
:104670000020E7E74A024302F0B55C0A550A43000E
:104680004A001B0EC60F120EC90FFF2B31D0FF2A96
:1046900034D0002B16D1604260418446002A14D0E9
:1046A000002820D18E4217D1934215DC04DBAC42A6
:1046B00012D80020AC4212D2704270414042012315
:1046C00018430CE0002AEDD194466F426F416046DA
:1046D000002805D1002FE5D0704201231843F0BD1A
:1046E0000020002FFBD1484248414042012318439B
:1046F000F5E7002CCBD002204042F0E7002DC8D0D7
:10470000F9E7C0464A024302F0B55C0A550A430085
:104710004A001B0EC60F120EC90FFF2B27D0FF2A0F
:1047200029D0002B10D0002A15D194466F426F413A
:104730006046002815D00020002F04D1484248418F
:10474000404201231843F0BD604260418446002A84
:10475000ECD00028F2D18E4211D0704201231843D0
:10476000F1E7002FF7D0704201231843EBE7022056
:10477000002CE8D1D3E70220002DE4D1D1E7934209
:10478000EBDC04DBAC42E8D80020AC42DBD2704268
:104790007041404201231843D5E7C04610B5041EBE
:1047A00033D0FFF7FFFE9E231B1A962B09DC083837
:1047B00084406402640ADBB26402DB05600A1843C9
:1047C00010BD992B0ADD0522121A211CD1400A1CAA
:1047D000011C1B318C40611E8C411443052801DDF6
:1047E000421F9440144A2240610704D00F210C401C
:1047F000042C00D0043251010AD59F23181AFF2837
:1048000016D09401640AC3B2D6E700230024D3E78C
:10481000D208FF2B03D05402640ADBB2CCE7002A93
:1048200006D08024E40314436402640AFF23C3E730
:10483000FF230024C0E7C046FFFFFFFBF0B55F4643
:1048400056464D464446F0B40D1C041C8046E80F05
:10485000814618030F03000B3F0B83B084461B48AF
:10486000009749005E00DF0F490D9246760DBB466A
:1048700081420CD01548864210D00120B14215D09B
:1048800003B03CBC90469946A246AB46F0BD009FA3
:1048900001202743F4D10D488642EED16046024301
:1048A0000120002AECD10120B142E9D1009B6345EF
:1048B000E6D1D045E4D1D94506D00029E0D11C434A
:1048C000201C441EA041DBE70020D9E7FF070000C1
:1048D000F0B55F4656464D464446F0B4CD0FDE0F68
:1048E000AC461D032D0BB146374E0F034C00AB46B3
:1048F0005D0080463F0B640D92466D0DB44232D090
:10490000314EB54235D0002C0ED1384341424141A1
:10491000081C002D0BD0002919D1CC452DD065469F
:1049200068420123184318E0002DF6D1281C59468F
:104930000A4353425341002806D1002BEDD0634671
:1049400058420123184308E00020002B05D14A46B5
:10495000504250414042012318433CBC9046994686
:10496000A246AB46F0BD3E1C0643C9D002204042E1
:10497000F3E75E461643C6D0F8E7AC4207DC0BDA35
:10498000614648424841404201231843E5E76646F4
:10499000704201231843E0E75F450AD80ED000209B
:1049A0005F45DAD2654668426841404201231843B8
:1049B000D3E76246504201231843CEE7D045F8D8EA
:1049C0000020D045EED3C8E7FF070000F0B55646FB
:1049D0004D4644465F46F0B40D1C83B0041C019064
:1049E000E80F814618030F03000B3F0B8446354840
:1049F000009749005E00DF0F490D9246760DB846DC
:104A0000814234D02F48864236D0002918D0002E5B
:104A10001FD1341C67463A4353425341002C1FD0E8
:104A20000020002B05D14246504250414042012314
:104A3000184303B03CBC90469946A246AB46F0BD35
:104A40000098044360426041041C002EE2D000281C
:104A5000E9D1C14515D04F46784201231843E8E714
:104A6000002BF6D04B46584201231843E1E7009F44
:104A700002202743DDD1C5E7674602201743D8D17E
:104A8000C3E7B14204DD4A46504201231843D0E750
:104A9000B14207DB00986045E4D80AD0009F0020AF
:104AA0006745C6D24F4678427841404201231843B9
:104AB000BFE7019A5245D5D8019A00205245F1D35B
:104AC000B7E7C046FF070000F0B5564644465F46CC
:104AD0004D46F0B41F1C0B031B0B9A464B0087B0CE
:104AE000041C80465B0DC80F161C02938146002BE8
:104AF00068D0694B0299994232D0802253465203C2
:104B00001A43D200630F1A439246644AE0008918A0
:104B100080460291002400253B031B0B9B46780036
:104B2000FB0F321C400D039300D175E05A4B9842A5
:104B300069D08022594652030A43730FD2001A43A8
:104B4000564B9346C018F200002303994E4671401D
:104B50001C430F2C00D9A9E0514EA4003459A7469C
:104B600053461C4300D087E00025AA46A8460824E7
:104B70000225D1E74946022D6CD0032D00D117E262
:104B8000012D00D058E10D40EDB20024A9460023CC
:104B9000A0460020002125030A0D1C052D0B12053F
:104BA000404B2A43134023435B004C465B08E2071B
:104BB000191C4046114307B03CBC90469946A2469A
:104BC000AB46F0BD5346234350D05346002B00D193
:104BD00084E15046FFF7E6FC031E272B00DD76E15B
:104BE00028210D1A211C083B5246E9409A400D1C11
:104BF0001543221C9A40AA4690462B4B00241B1AB0
:104C00000293002588E75B461E430323002E9CD1B8
:104C1000B3460022022398E75B46334321D058462F
:104C2000002800D14EE1FFF7BDFC272800DD42E15E
:104C300028210F1A021C311C083A5B46F9409340A8
:104C40000F1C1F43331C9340BB461A1C164B181AEB
:104C500000237AE701230B4000249946A0460E4B1F
:104C600097E70027BB46002201236EE700210424BA
:104C70008A46884601254FE70C2403254CE700258A
:104C80008024A9462403A846034B82E7DA469046CF
:104C900003991D1C6FE7C046FF07000001FCFFFFE2
:104CA0001C5D0000FFFF0F800DFCFFFF029F160C34
:104CB000381804904046070C0004000C1204120C33
:104CC000031C5343041C3D1C7443554398463B1C32
:104CD00073436419A44644460293230C63449D42E3
:104CE00004D9029D802464022D1902951D0C0395A0
:104CF00045462C041B04240C1C1905945C46230C0B
:104D0000051C58432404240C8446381C6043654326
:104D10005F438146CC44280C6044BB46814502D9A0
:104D200080277F02BB442D04070C2D0C0004401982
:104D30005546BC462F04E3448446280C3D0C2F1CEA
:104D40005743B8462F1C77434243B94647463F0C6A
:104D50009144BA46D14446434A4502D98022520280
:104D6000B6184F463A0CB6183A0447463F043F0C73
:104D7000B8462F1C67435D4344435843651901906F
:104D8000380C2D184244B846AC4204D9019880230F
:104D90005B02C0180190039C029F201C6044C01954
:104DA0006045A44147466442A4462B043C0499460E
:104DB000240C4C44A046D8448018C246E244904299
:104DC0009241574652429146F219E245BF417F4215
:104DD0004B46BC46D845BF41D4187F4263461F436B
:104DE0002D0C7F19B24292414C45AD4152426D4269
:104DF0001543019E7D19AB19E20D5B02059F13431C
:104E000042023A439A46531E9A41C30D101C18435E
:104E10006402204380465046C0010DD5454601221C
:104E20005646049C6B082A401A43F30701341A4380
:104E3000760804949046B246049E634FF319002B03
:104E400061DD404640070BD00F2244462240042A31
:104E500006D0424604324245804140428244904658
:104E60005546ED0107D5594B5646049F80201E40FC
:104E7000C000B2463B18564A934200DDEAE644467B
:104E80005546E2086807104301226C025B050A40A0
:104E90008046240B5B0D91467BE6DA4690461D1C4E
:104EA00069E680242403574627421CD13C4324034F
:104EB000240B484B6DE6031C283B311C99408B4664
:104EC0000022C3E6301CFFF76DFB2030ADE6283B27
:104ED000211C994000228A4690468EE6201CFFF74E
:104EE00061FB203078E65846204207D104430399FD
:104EF0002403240B89469046364B4AE63C43240360
:104F0000240B344B45E6344B049E9B1B382B06DDAB
:104F100001230B4000249946A046002339E61F2BAD
:104F200025DC049C2D4D4646601952464446864079
:104F3000DC4082405746301C2243DF40441EA041E3
:104F400002433B1C540709D00F201040042805D011
:104F5000101D9042924152429B18021C1D021AD50C
:104F600001230B4000249946A046012311E61C486A
:104F7000049C5546001BC540281C202B16D0194EFA
:104F80005746A21997403A1C43461A43531E9A416A
:104F900002430023D6E758075B02D2081C0B01230B
:104FA0000B401043994680460023F2E50022EBE7D0
:104FB0008024240350460123044319402403240B76
:104FC0008946044BE5E5C046FF030000FFFFFFFEF6
:104FD000FE070000FF07000002FCFFFF1E040000A8
:104FE000E2FBFFFF3E040000F8B55F46564644462C
:104FF0004D46F0B40C034D00CF0F610A440F21431E
:10500000C4001803DE0F8046B44646465800760AB0
:10501000530F3343D600D14A6D0DBA46400DB34607
:10502000904200D1F5E06246012672409446674501
:1050300000D1ABE02F1A002F00DC11E100283ED197
:105040005846184300D0F1E0600700D197E00F23E5
:105050002340042B00D122E1221DA242A44164423C
:10506000802309191B04012750460B400740141CDC
:10507000002B00D179E0B94B01359D4200D10BE105
:10508000B74BE40819404807490204430B0B0020C2
:1050900000211B031A0B0B0D6D051B0513436A083A
:1050A000B04DFF071D4015436D006D08291C3943A5
:1050B000201C3CBC90469946A246AB46F8BDA7488A
:1050C0008542C1D0802000040343382F00DDFDE07D
:1050D0001F2F00DD31E12020C01B1A1C5E468240DC
:1050E000FE40324394465A468240101C421E904174
:1050F000FB40624602431F1CA21A9442A441644230
:10510000C91B091B141C0A029ED549024F0A002F15
:1051100000D1D6E0381CFFF745FA021C083A1F2AD6
:1051200000DDC3E02821231C091A9740CB401F4310
:105130009440954200DDC0E0551B691C1F2900DD2D
:10514000EAE01F22551B3B1C221CAB40CA40AC406E
:10515000651EAC411343CF401C43391C002573E747
:1051600080217E4D0027C90300247C4B4807E408BA
:105170000443C9089D4250D009030B0B87E78023E5
:105180001B04012752460B40174071E72A1A944628
:10519000002A00DCA1E0002854D07048854200D1EC
:1051A00052E78020000403436046382800DD0EE10A
:1051B0001F2800DD57E162462020801A1E1C864011
:1051C000B1465E46D6404A4632435E4686409046E9
:1051D000301C421E9041424602436046C3401219B1
:1051E000A242A441644259180919141C080200D4AF
:1051F0002AE75A4B01359D4200D131E1584B6008F6
:105200001940012323401C1C0443CB071C434908BD
:105210001AE71E4300D00AE705E7231C0B433BD0E7
:1052200080231B030B431B031B0B30E7013F002FA5
:105230006DD15E46A21B9442A4416442C91A091B67
:10524000141C60E75846184300D1FDE6012676425B
:10525000B4446046002800D0D0E05E463219BFE773
:10526000002F00D080E0681C4005400D012800DCC4
:10527000E8E05A46A21A9442BF41C81A7F42C71BAF
:105280003E0200D498E05846041BA3459241591AA7
:1052900052428F1AE2463AE700230024F7E68023C1
:1052A0001B04012756460B403740E1E6271C2838EF
:1052B00087400024954200DC3EE72949AD1A394079
:1052C000C2E6201CFFF76EF9203026E75A461A4343
:1052D000531E9A41D2B200270EE7002A00D0DEE02A
:1052E000681C4605760D012E00DC90E01B4DA8429F
:1052F00000D1F5E05E463219A242A4416442591839
:105300000919CC07520814434908051C9CE61348A8
:10531000854200D0D9E697E62B1C1F3B3E1CDE40A1
:10532000331C20296FD03F22551BAF403C43601EE9
:1053300084411C430021002586E6381C20381E1CB1
:10534000C640301C202F60D04022D71BBB405A469D
:105350001A43531E9A4102430027CDE6FF0700007F
:10536000FFFF7FFFFFFF0F80002D37D0B64DA84213
:1053700000D18FE080252D047F422943382F00DDA6
:10538000A8E01F2F00DD24E12025ED1B0E1CAE4000
:10539000B046261CFE404246AC401643651EAC415A
:1053A0003443F9405A46141BA34592415B1A5242BA
:1053B000991A051CE246A6E6131C3B43141C002B5D
:1053C00000D0A4E60027002100250024CDE65A469F
:1053D0001A43531E9A41D2B2002300E70D1C254305
:1053E00058D0FF43002F51D15A46141BA345924178
:1053F000591A5242891A051CE24684E692488542AF
:1054000000D0D1E620E6002790E700239FE7081CA4
:105410002043002D00D0C2E0002800D1EFE0584624
:10542000184300D110E658460219A242A441644232
:1054300059180919141C0A0200D405E6834B0125EA
:10544000194001E6081C2043002D38D100286FD1F7
:105450005946194303D0191C5C46E246F4E500277F
:105460000021002481E6604620381A1CC2406646AE
:10547000101C202E00D1AAE04022921B93405A46D5
:105480001A43531E9A4102430023A8E66E4DA842D8
:1054900000D073E7191C5C46051CE246D4E5002DDC
:1054A00022D10D1C254376D0D543002D70D15C440C
:1054B0005C459241591852428918051C96E600280D
:1054C0004CD15946194300D14AE6191C5C46E246C4
:1054D0005D4DB9E50C43611E8C41E4B2002161E7EA
:1054E000051C0021002440E6574DA84253D05542E8
:1054F000802216043143382D7BDC1F2D00DD8CE02B
:105500002022561B0A1CB446B240261CEE403243F1
:10551000904662469440661EB44142461443E940B8
:105520005C445C459241CB1852429918051C5DE6DB
:105530005846184300D187E55E46A71BBC429241FE
:10554000C81A5242801A060260D55846041BA34569
:105550009241591A5242891AE24675E55846184353
:1055600033D04807E40804438020C90800030142FF
:1055700008D0DD08054205D15946CA085C07144326
:10558000291CE246630FC9001943E4002E4D5BE578
:105590002D4A9042AFD1191C5C46051C54E50028E9
:1055A00030D05846184310D080254807E408C90871
:1055B0002D0304432942E5D0D8082842E2D15D46B4
:1055C000EA085C071443011CDCE71F4D3CE500239F
:1055D00055E73D1C203D0E1CEE40351C202F2ED0E3
:1055E0004026F71BB9400C43611E8C412C4300211F
:1055F000D8E60C43611E8C41E4B2002190E7191CEF
:105600005C4621E5191C5C460F4D1DE5031C3B4320
:1056100000D124E7011C3C1C16E5202676427619B1
:105620000A1CF2409046202D0BD04026751BA94045
:105630000C43611E8C4145462C43002170E700213C
:10564000D1E70021F4E7C046FF070000FFFF7FFF1E
:1056500070B50B1C124C09030E0B5900021C490DAE
:10566000DD0F0020A14211DD0E4881420FDC8020B9
:10567000400306430C48401A1F280BDD0B4A521A00
:10568000D640321C5042002D00D1101C70BD084B7A
:10569000E818FBE7074BC240C9188E403243F1E7D8
:1056A000FE0300001D04000033040000130400008A
:1056B000FFFFFF7FEDFBFFFF43001B0E5A1C410263
:1056C000D2B270B54C0AC50F012A17DDE022920054
:1056D0006407090B9818002200231E0D221C3405B4
:1056E0000C431B494005400821400143490049083B
:1056F000ED070B1C2B43101C191C70BD002B15D182
:10570000002C1CD0201CFEF74DFF0A281ADC0B21B0
:10571000091A231CCB40191C031C15339C400D4B4C
:105720000903181A4005090B400DD4E7002C03D0DB
:105730006407090B0848CEE707480021CBE70020A3
:105740000021C8E7011C0B398C40211C0024E6E72E
:10575000FFFF0F8089030000FF0700002053554D15
:10576000445F4445434F44455F53544154455F555E
:105770004E53594E43454420002053554D445F44F9
:1057800045434F44455F53544154455F474F545F31
:105790004845414445523A202578200A0020535577
:1057A0004D445F4445434F44455F53544154455F26
:1057B000474F545F53544154453A202578200A00FE
:1057C0002053554D445F4445434F44455F53544136
:1057D00054455F474F545F4C454E3A20257820286A
:1057E000256429200A002053554D445F4445434F0A
:1057F00044455F53544154455F474F545F444154BF
:10580000415B25645D3A2025780A002053554D44BC
:105810005F4445434F44455F53544154455F474FB0
:10582000545F44415441202D2D2066696E69736890
:10583000202D2D002053554D445F4445434F444592
:105840005F53544154455F474F545F435243313691
:105850005B315D3A2025782020205B25785D0A00A9
:105860002053554D445F4445434F44455F53544195
:1058700054455F474F545F43524331365B325D3A84
:105880002025782020205B25785D0A002053554D87
:10589000445F4445434F44455F53544154455F473B
:1058A0004F545F53554D485F54454C454D455452F8
:1058B000593A2025780A002053554D445F4445430A
:1058C0004F44455F53544154455F474F545F4352E3
:1058D000435B325D3A2025782020205B25785D0AE5
:1058E0000A002053554D445F4445434F44455F53A0
:1058F000544154455F474F545F435243385F5355BB
:105900004D483A2025782020205B25785D0A0A0042
:1059100020435243202D204F4B200020476F7420FE
:1059200076616C69642053554D44205061636B650A
:10593000740020476F742076616C69642053554D64
:1059400048205061636B6574002052584C454E3AB4
:1059500020256420205B4368616E733A2025645DD6
:10596000200A0A0063685B25645D203A20257820C0
:105970002578205B202578202020202564205D0AC2
:105980000020435243202D206661696C200053742F
:1059900061727465642E00FF420000F840A004406C
:1059A00001000000420000F844A004400200000092
:1059B000C00000F800C0044001000000000000F832
:1059C0000490044002000000000000F80890044029
:1059D00004000000C00000F81CC00440800000006B
:1059E000C00000F810C0044010000000C00000F823
:1059F00008C0044004000000C00000F80CC00440CF
:105A000008000000800000F80CB00440080000000E
:105A1000800000F810B0044010000000800000F882
:105A200018B0044040000000800000F81CB00440A2
:105A300080000000800000F814B004402000000046
:105A4000C00000F804C0044002000000800000F81C
:105A500000B0044001000000400000F800A0044035
:105A600001000000400000F804A004400200000013
:105A7000400000F80CA0044008000000400000F8BE
:105A800008A0044004000000C00000F814C0044056
:105A900020000000C00000F818C0044040000000D2
:105AA000800000F804B0044002000000800000F80C
:105AB00008B0044004000000020100F850D0044087
:105AC00010000000020100F854D004402000000043
:105AD000030100F878D00440400000000D0AFFFFE9
